:100000000C943A000C9457000C9457000C94570031
:100010000C9457000C9457000C9457000C94570004
:100020000C9457000C9457000C9457000C945700F4
:100030000C9457000C9457000C9457000C945700E4
:100040000C9457000C9457000C9457000C945700D4
:100050000C9457000C9457000C9457000C945700C4
:100060000C9457000C9457000C9457000C945700B4
:100070000C94570011241FBECFEFD4E0DEBFCDBFDC
:1000800013E0A0E0B1E0EEE8FFE002C005900D92C1
:10009000AA33B107D9F713E0AAE3B3E001C01D9278
:1000A000A036B107E1F70E9415060C94C5070C9421
:1000B00000000C948F010C94B0010C9495010C94E9
:1000C0009B010C94A1010E94A1010E949B01882325
:1000D000E1F38CE291E00197F1F70E948F01811129
:1000E0000C945B0008950C94B701CF93DF9300D07C
:1000F0001F92CDB7DEB780ED90E09A83898388E0C8
:100100008B83509A589A0E9464018FE690E00E9477
:10011000FB0081E090E00E94530161E070E081E02B
:1001200090E00E943F010E942B01CE0101960E94A7
:1001300077010F900F900F90DF91CF910895CF939B
:10014000DF93D62FFB0160E070E0A1E0B0E05E2F0E
:100150005D1B5417B8F4C191BD010C2E02C0660F8F
:10016000771F0A94E2F76F5F7F4F76956795680F68
:10017000791F02C076956795CA95E2F76F3F7105C2
:1001800009F028F7F9016083852FDF91CF91089559
:10019000E1E6F0E080E880831082A89584B7877F4D
:1001A00084BFE0E6F0E0808188618083108208955A
:1001B0001092800084E0809381001092850010925C
:1001C0008400089580918400909185000895AC0189
:1001D00080918400909185009C01241B350B283E62
:1001E0003340B0F708952091840030918500820F4C
:1001F000931F0C94E700CF93DF931F92CDB7DEB728
:100200009E012F5F3F4F45E063E173E00E949F0036
:1002100091E0980F909300019981915097BD18BC7F
:1002200095B5977039F025B5909100019770287FAA
:10023000922B95BD298130E0E82FF0E0ED5EFC4F78
:10024000C901008002C0880F991F0A94E2F70F903D
:10025000DF91CF91089585B3897F85BB95B5809156
:1002600000018770987F892B85BD089585B5887FAB
:1002700085BD089585B382FB882780F9089500978E
:1002800019F0019741F0089584B56295660F660FE5
:10029000607C8F7305C084B563706295607F8F7CCE
:1002A000682B64BD0895009741F0019759F484B517
:1002B0008E7F84BD84B5826002C084B58C7F84BD8E
:1002C00081E0089580E0089514BC15BC16BC18BCEC
:1002D00081E090E00E94530181E008959C0121504B
:1002E00031093093CD0081508093CC000895CF9395
:1002F000DF93EC01888199810E946E018A819BEFD6
:10030000980F943008F088E098E19093C9008550E8
:10031000880F8093CA0081E0DF91CF91089580918A
:10032000C800881F8827881F08958091C80085FB12
:10033000882780F908958091C80086FB882780F976
:100340000895CF93C82F0E9495018823E1F39091DF
:10035000C80090649093C800C093CE00CF910895D8
:100360008091C80087FFFCCF8091CE000895CF9385
:10037000DF93EC018991882319F00E94A101FACF43
:10038000DF91CF9108958530A0F4673090F421E09B
:1003900030E0062E01C0220F0A94EAF7E82FF0E0C1
:1003A000E25BFC4F822F8095908189234111822B43
:1003B00080830895853088F4673078F4E82FF0E082
:1003C000E25BFC4F21E030E0062E01C0220F0A94D0
:1003D000EAF79081922381E009F480E0089560912A
:1003E0004D03E62FF0E0E25BFC4F80810E943E026D
:1003F00080914D038F5F853018F480934D030895ED
:1004000010924D03089510924E0310924F031092D4
:100410005003109251031092520308950E941C023F
:100420000C940302FC01FF2784A1892B84A385A1DE
:10043000892B85A381E00895CF93DF93C2E2D3E0B7
:10044000899199910E94120283E0C033D807C1F7C5
:1004500083E090E40E94120280E090E80E94120281
:1004600083E090E10E94120283E090E80E94120271
:1004700083E090E2DF91CF910C941202E09153035C
:10048000F0E0EE0FFF1FE85EFC4F20813181F901A3
:10049000FF2795A1932B95A3E2E2F3E02081318120
:1004A000D901BB2780FF07C095962C919597932F74
:1004B0009095922304C095969C919597932B959631
:1004C0009C938695329693E0E033F90739F7E62F4F
:1004D000F0E0EE0FFF1FE85EFC4F80819181FC0190
:1004E000FF2725A1892F8095822385A3609353033D
:1004F00008956230710511F160F46130710551F5B4
:10050000FC01FF2784A19095892384A385A18923D9
:100510001EC06330710541F064307105D9F4FC01EF
:10052000FF2784A1892B10C0FC01FF2784A1892B00
:1005300084A325A1892F8095822309C0FC01FF2770
:1005400084A1292F2095822384A385A1892B85A3AB
:1005500081E0089580E00895E82FF0E0EE0FFF1F9E
:10056000EC5AFC4F8081882321F0818191E089271A
:1005700001C080E081700895E82FF0E0EE0FFF1FCA
:10058000EC5AFC4F8081811102C0818101C080E062
:1005900081700895E82FF0E0EE0FFF1FEC5AFC4F3A
:1005A00080810895E82FF0E0EE0FFF1FEC5AFC4F1A
:1005B000908181E0892708954F925F927F928F9278
:1005C0009F92AF92BF92CF92DF92EF92FF920F93E2
:1005D0001F93CF93DF9300D0CDB7DEB754E5452E00
:1005E00053E0552E65E5E62E63E0F62E70E3A72E68
:1005F00073E0B72EE6E07E2EF2018081F701808362
:10060000F501019111915F016801DD24F60184A1DA
:10061000812E992425A130E02821392141E0232B86
:1006200009F440E090E088219921892B29F04423A6
:1006300041F024E030E00AC0442331F022E030E011
:1006400005C023E030E002C021E030E064E070E06B
:10065000C80129833A830E94790262E070E0C801F0
:100660000E947902872D8A95F1F7F60183A190E027
:100670008821992141E029813A81892B09F040E0C4
:10068000F2014083B901C8010E947902F2E04F0EE5
:10069000511C82E0E80EF11CEEE54E16E3E05E062A
:1006A00009F0AACF0F900F90DF91CF911F910F917A
:1006B000FF90EF90DF90CF90BF90AF909F908F9082
:1006C0007F905F904F9008950895009789F0FC0106
:1006D0002381621B67FD09C0772767FD7095248120
:1006E00030E081E0621773070CF080E081700895BC
:1006F00080E00895CF93DF93FC01822F309789F13A
:100700009181491770F52281821758F52381621B68
:1007100067FD27C0A62FBB27A7FDB095C481D0E0F9
:10072000AC17BD07F4F4692F0E948807480F658154
:1007300070E0CD010E949107DC011696842F86950A
:1007400086958695AE0FBF1FA80FB11D2C9130E086
:10075000477002C0359527954A95E2F7822F817040
:1007600001C080E0DF91CF91089541E0611101C0A7
:1007700040E0692F0C94C301692F0C94DA0141E029
:10078000611101C040E0692F0C94C3016F927F9208
:100790008F929F92AF92BF92CF92DF92EF92FF9291
:1007A0000F931F93CF93DF931F92CDB7DEB7862EA3
:1007B000B42E6C01862F992787FD90958C1991098D
:1007C000C7FC9395072F112707FD10950D191109E7
:1007D000D7FC139597FD03C0AA24A39402C0AA24B2
:1007E000AA9417FD03C09924939402C099249A9463
:1007F0003C0197FF03C071946194710817FF03C017
:100800001195019511096016710694F07301F59424
:10081000E794C81409F16B2DC6010E94BF03E01ACA
:10082000F10AF7FE03C0E60CF71CD90CCA0CF1CF95
:100830007801F594E794D71679F06B2DC60179838A
:100840000E94BF03E618F7087981F7FE03C0E00EA7
:10085000F11ECA0CD90CEFCF6B2DC6010F90DF91A2
:10086000CF911F910F91FF90EF90DF90CF90BF90AD
:10087000AF909F908F907F906F900C94BF03FF92EA
:100880000F931F93CF93DF93182FF92E062FC72FA7
:10089000D42F792F0E94C6034D2F612F7C2F812FDB
:1008A0009F2D0E94C6034D2F602F7C2F802F9F2DE0
:1008B0000E94C6034D2F602F7C2F812F9C2F0E94FA
:1008C000C603DF91CF911F910F91FF9008950E9471
:1008D00003021092120110920D010895DF92EF921F
:1008E000FF920F931F93CF93DF93E82E8B01F62E89
:1008F000D12E2091030130910401D0E02130310547
:1009000099F5D12EDD1AE0910901F0910A0181815A
:10091000C0E0D817B8F4E0910901F0910A01828192
:10092000C81770F42C2F4D2F6E2DCF010E947A0323
:10093000682F8C2F800F9D2D0E94BF03CF5FEBCFC0
:10094000DF5FDFCFE0910901F0910A018281C817D2
:1009500040F460E08C2F800F9D2D0E94BF03CF5F7D
:10096000F1CFDA9430C0DF5FFD2EF00EE091090187
:10097000F0910A018181C0E0D817A8F4E091090143
:10098000F0910A018281C81770F72C2F4D2F6E2D20
:10099000CF010E947A03682F8F2D9C2F910F0E9408
:1009A000BF03CF5FEBCFE0910901F0910A01828193
:1009B000C81740F460E08F2D9C2F910F0E94BF0359
:1009C000CF5FF1CFF3948F2D9D2DDF91CF911F91AC
:1009D0000F91FF90EF90DF9008951F93CF93DF93D7
:1009E000182FEC019C2F911B8991882349F00E94BC
:1009F0006E04BC019C2F911B653014F477FFF2CF7D
:100A0000892FDF91CF911F9108950F931F93CF935B
:100A1000DF93EC019B0110920D0140930E011092A7
:100A200011010091090110910A010115110509F444
:100A300048C0F8018181609107017091080190E040
:100A40000E949107BC0180910B0190910C010E94C2
:100A5000A207CB016AE070E00E9491079093100119
:100A600080930F01309306012093050140E250E08E
:100A7000BE0182E191E00E94B60780910101909150
:100A800002010197F1F4FE0101900020E9F7CF0186
:100A90000197F801618170E06F5F7F4F8C1B0E94AE
:100AA00088078150209103013091040121303105E4
:100AB00011F497E001C095E0981718F48EEF809339
:100AC0001101DF91CF911F910F91089520910301A2
:100AD000309104012130310511F476E001C070E05D
:100AE0004FEF60E00E940505089590E090930801A3
:100AF0008093070108959093020180930101089566
:100B00009093040180930301089590930A018093C8
:100B100009010895CF9380915E0390915F03019640
:100B200090935F0380935E0320910F013091100139
:100B30008217930708F468C010925F0310925E0357
:100B4000E0910D01F0E0EF5FFE4F818981110AC055
:100B500080910E01823008F457C0815080930E01BD
:100B600010920D01C0910D018C2F90E0FC01EF5F00
:100B7000FE4F2189222309F447C0209101013091C1
:100B80000201409111012115310521F0213031057B
:100B900089F022C0411120C06091050170910601C9
:100BA0008E5E9E4F0E94ED049FEF9C0F980F9093D6
:100BB0000D0112C0609105017091060120910301A1
:100BC000309104012130310511F4740F01C0641B10
:100BD0008E5E9E4F0E94ED04209111012F5F2093A5
:100BE0001101332727FD3095E0910901F0910A01A9
:100BF000818190E0821793073CF41092110180915B
:100C00000D018F5F80930D01CF910C94EF019093B4
:100C10000C0180930B010E940E0284E190E09093FE
:100C20000801809307010C9467040E94C80084EFB8
:100C300091E00E94070682E391E00E9485058AE028
:100C40000E94750581E090E00E947B050E9464038C
:100C500061E082E094E00E94B50361E082E093E00D
:100C60000E94B50361E082E092E00E94B50392E049
:100C7000F92E22E0B22E03E032E0C32ED4E042E0AF
:100C8000D42EE12C13E0C2E080913A03833008F0C7
:100C90003CC10E94DC020E948A0580E00E94AC02F6
:100CA000882361F1123050F1E1100FC060E08D2D0A
:100CB0009D2F0E94B50360E08C2D902F0E94B503FC
:100CC00060E08B2D9F2D0E94B503D12FDC2E0FEFFE
:100CD000010F8EEFF82EF10E61E0CE010E94B503F8
:100CE00061E08C2F902F0E94B50361E08C2F9F2D27
:100CF0000E94B503BC2ECC2E102FE12C82E00E9466
:100D0000AC02882359F1153048F5E1100FC060E0BE
:100D10008D2D9D2F0E94B50360E08C2D902F0E9499
:100D2000B50360E08B2D9F2D0E94B503D2E0D10F5B
:100D3000DC2E01E0010FF12E61E0CE010E94B5032F
:100D400061E08C2F902F0E94B50361E08C2F912FD2
:100D50000E94B503BC2ECC2E102FE12C81E00E9406
:100D6000AC02882361F1C43050F5E1100FC060E09F
:100D70008D2D9D2F0E94B50360E08C2D902F0E9439
:100D8000B50360E08B2D9F2D0E94B503CF5FD1E0AE
:100D9000D10FDC2E012FFF24FA94F10E61E0CE0179
:100DA0000E94B50361E08C2F912F0E94B50361E092
:100DB0008C2F9F2D0E94B503BC2ECC2EE12C83E0FE
:100DC0000E94AC02882361F1CC2351F1E1100FC0E5
:100DD00060E08D2D9D2F0E94B50360E08C2D902F3B
:100DE0000E94B50360E08B2D9F2D0E94B503C1507A
:100DF000D1E0D10FDC2E012FFF24FA94F10E61E037
:100E0000CE010E94B50361E08C2F912F0E94B503A3
:100E100061E08C2F9F2D0E94B503BC2ECC2EE12CBF
:100E200084E00E94AC02882309F42ECF80913A031B
:100E30008F5F80933A03813001F5D0924B03D093BA
:100E40004C03C092490300934A03B0924703F092C7
:100E5000480361E080914B0390914C030E94B503DD
:100E600061E08091490390914A030E94B50361E0DB
:100E7000809147039091480343C0823001F5D0929E
:100E80004503D0934603C092430300934403B092BA
:100E90004103F092420361E0809145039091460343
:100EA0000E94B50361E080914303909144030E9446
:100EB000B50361E0809141039091420321C08330EA
:100EC00009F5D0923F03D0934003C0923D030093B5
:100ED0003E03B0923B03F0923C0361E080913F03FC
:100EE000909140030E94B50361E080913D03909191
:100EF0003E030E94B50361E080913B0390913C0367
:100F00000E94B503EE24E394BFCE0E948A05FDCF74
:100F1000002480FD060E660F11F08695D1F7802D16
:100F200008950024552704C0080E591F880F991FE3
:100F3000009729F076956795B8F37105B9F7802D7C
:100F4000952F0895AA1BBB1B51E107C0AA1FBB1F09
:100F5000A617B70710F0A61BB70B881F991F5A9545
:100F6000A9F780959095BC01CD010895FB01DC01A6
:100F70004150504048F001900D920020C9F701C047
:0E0F80001D9241505040E0F70895F894FFCFC5
:100F8E00010000000000001400000000000000003E
:100F9E000000000000000000000000000000000043
:100FAE000000000000000000000000000000000033
:100FBE000000010507205F050000000000C6186351
:100FCE0080014A290000004A7DF59502C417471F8B
:100FDE000163222232062615519305860800000071
:100FEE0088082108028220848800805457090080D6
:100FFE00904F0800000060880000800F0000000085
:10100E00008C0100222202002EE63AA303C41042F5
:10101E0088032E4244C4072E4207A30388A9F41165
:10102E00023F8407A3032E8617A3033F4244080101
:10103E002E4617A3032E460FA303C018600C00C044
:10104E00186088008888200802007CF00100822049
:10105E008888002E424400012E425BAB0344C51F1C
:10106E0063042FC617E3032E8610A2032FC618E3C0
:10107E00033F8417C2073F841742002E861EA30724
:10108E0031C61F63048E10428803104218A3033129
:10109E0095515204218410C20771D71A630471D678
:1010AE001C63042EC618A3032FC61742002EC65863
:1010BE0093052FC61763042E0607A3039F1042083D
:1010CE000131C618A30331C618150131C65AAB0239
:1010DE00312AA26204312A4208011F2222C20727A6
:1010EE008410C20120088220000E21849003444502
:1010FE00000000000000C00782200000000038E859
:10110E00A30721B419E30300B810A20310DA1CA33D
:10111E000700B8F883034C8A238400C0C7E8A103F4
:10112E0021B4196304041842880308308492012103
:10113E00A4324A02861042880300AC5A630400B4FB
:10114E0019630400B818A30300BCF8420000D8ECE1
:10115E00210400B419420000B8E0E003421C21242F
:10116E000300C418B30500C418150100C45AAB021D
:10117E00004445540400C4E8A103007C44C407881D
:10118E001041080284104208018210448800008831
:10119E008A0000000306080A034000800310038043
:1011AE00032000400020001000080004000200018F
:0A11BE0003800340032000800310AB
:00000001FF
