:100000000C943A000C9457000C9457000C94570031
:100010000C9457000C9457000C9457000C94570004
:100020000C9457000C9457000C9457000C945700F4
:100030000C9457000C9457000C9457000C945700E4
:100040000C9457000C9457000C9457000C945700D4
:100050000C9457000C9457000C9457000C945700C4
:100060000C9457000C9457000C9457000C945700B4
:100070000C94570011241FBECFEFD4E0DEBFCDBFDC
:1000800013E0A0E0B1E0ECEEF3E102C005900D92C8
:10009000AE37B107D9F723E0AEE7B3E001C01D9258
:1000A000AB3AB207E1F70E94CA060C94F4090C942B
:1000B000000080918E0390918F03019690938F039F
:1000C00080938E030895E0917E03F0E0EE0FFF1F12
:1000D000EA5CFE4F20813181F901FF2795A1932B26
:1000E00095A3E62FF0E0EE0FFF1FEA5CFE4F2081A4
:1000F0003181F901FF2795A1232F2095922395A304
:10010000E0E4F1E020E030E0682F70E0CB01022E67
:1001100002C0959587950A94E2F740815181DA01F2
:10012000BB2795969C91959780FF04C0852F80955D
:10013000982301C0952B95969C932F5F3F4F329645
:100140002730310519F708950C94DC010C94FD015A
:100150000C94E2010C94E8010C94EE010E94EE0173
:100160000E94E8018823E1F38CE291E00197F1F726
:100170000E94DC0181110C94A60008950C940402E5
:10018000CF93DF9300D01F92CDB7DEB780ED90E024
:100190009A83898388E08B83509A589A0E94AF0192
:1001A0008FE690E00E94460181E090E00E949E016F
:1001B00061E070E081E090E00E948A010E94760197
:1001C000CE0101960E94C4010F900F900F90DF9115
:1001D000CF910895CF93DF93DC01562FFB0160E0B0
:1001E00070E0C1E0D0E08E2F851B8417B8F49191A8
:1001F000BE01092E02C0660F771F0A94E2F76F5FF7
:100200007F4F769567956A0F7B1F02C0769567953D
:100210009A95E2F76F3F710509F028F7F9016083BD
:10022000DF91CF910895E1E6F0E080E880831082CD
:10023000A89584B7877F84BFE0E6F0E0808188617D
:100240008083108208951092800084E08093810062
:1002500010928500109284000895809184009091FE
:1002600085000895AC0180918400909185009C01E7
:10027000241B350B283E3340B0F7089520918400AD
:1002800030918500820F931F0C943201CF93DF933E
:100290001F92CDB7DEB79E012F5F3F4F45E06FE263
:1002A00073E00E94EA0091E0980F90930401998115
:1002B000915097BD18BC95B5977039F095B52091C0
:1002C00004012770987F922B95BD298130E0E82F9B
:1002D000F0E0E15DFC4FC901008002C0880F991F6A
:1002E0000A94E2F70F90DF91CF91089585B3897F4B
:1002F00085BB85B5909104019770887F892B85BD5A
:10030000089585B5887F85BD089585B382FB8827CC
:1003100080F90895009719F0019741F0089584B588
:100320006295660F660F607C8F7305C084B563703D
:100330006295607F8F7C682B64BD0895009741F0C3
:10034000019759F484B58E7F84BD84B5826002C064
:1003500084B58C7F84BD81E0089580E0089514BC4D
:1003600015BC16BC18BC84B58E7F84BD84B5826074
:1003700084BD81E008959C01215031093093CD0066
:1003800081508093CC000895CF93DF93EC01888156
:1003900099810E94BB018A819BEF980F943008F0ED
:1003A00088E098E19093C9008550880F8093CA0037
:1003B00081E0DF91CF9108958091C800881F882740
:1003C000881F08958091C80085FB882780F90895CB
:1003D0008091C80086FB882780F90895CF93C82FA5
:1003E0000E94E2018823E1F39091C8009064909309
:1003F000C800C093CE00CF9108958091C80087FFB8
:10040000FCCF8091CE000895CF93DF93EC018991CA
:10041000882319F00E94EE01FACFDF91CF91089561
:10042000853098F4673088F421E030E001C0220F75
:100430006A95EAF7E82FF0E0EB56FC4F922F909583
:10044000808189234111822B80830895853080F437
:10045000673070F4E82FF0E0EB56FC4F81E090E05D
:1004600001C0880F6A95EAF79081982381E009F42A
:1004700080E0089560919403E62FF0E0EB56FC4F86
:1004800080810E948802809194038F5F853018F4E8
:10049000809394030895109294030895E5E9F3E09E
:1004A0001082118212821382148208950E946602C1
:1004B0000C944E029C01FC01FF2784A1832B84A392
:1004C00095A1892F832B85A381E00895CF93DF9396
:1004D000CEE3D3E0899199910E945A0283E0CC3413
:1004E000D807C1F783E090E40E945A0280E090E8C8
:1004F0000E945A0283E090E10E945A0283E090E851
:100500000E945A0283E090E2DF91CF910C945A024C
:10051000E0919A03F0E0EE0FFF1FEC5CFC4F2081AE
:100520003181F901FF2795A1932B95A3EEE3F3E029
:1005300097E020813181D901BB2795962C91959721
:1005400080FF03C03095232301C0232B95962C9365
:100550008695915032969111ECCFE62FF0E0EE0F98
:10056000FF1FEC5CFC4F80819181FC01FF2785A17E
:100570009095892385A360939A030895623071054D
:1005800011F168F46130710551F5FC01FF2724A1D8
:10059000892F8095922F982394A395A112C0633040
:1005A000710541F064307105D1F4FC01FF2784A18D
:1005B000892B0FC0FC01FF2784A1892B84A385A16F
:1005C0009095892309C0FC01FF2724A1892F8095DC
:1005D000822384A385A1892B85A381E0089580E0EF
:1005E0000895E82FF0E0EE0FFF1FE556FC4F8081E5
:1005F000882321F0918181E0892702C080E090E08A
:1006000081700895E82FF0E0EE0FFF1FE556FC4FD4
:100610008081811102C0818102C080E090E0817000
:100620000895E82FF0E0EE0FFF1FE556FC4F8081A4
:100630000895E82FF0E0EE0FFF1FE556FC4F908184
:1006400081E0892708956F927F928F929F92AF9257
:10065000BF92CF92DF92EF92FF920F931F93CF93AF
:10066000DF9300D0CDB7DEB72BE9622E23E0722EE8
:100670003CE4C32E33E0D32E812C46E0942EF301CC
:1006800080818183F601019111916F015801BB2492
:10069000F50184A1E12EFF2425A130E02E213F2188
:1006A00041E0232B09F440E090E08E219F21892B2B
:1006B00029F0411108C023E030E00AC0411106C012
:1006C00021E030E005C024E030E002C022E030E06C
:1006D00064E070E0C80129833A830E94BE0262E0B0
:1006E00070E0C8010E94BE02892D8A95F1F7F501DC
:1006F00083A190E0E822F92281E029813A81EF2864
:1007000009F080E0F3018083B901C8010E94BE02B4
:100710008394F2E06F0E711C85E08812B0CF0F90C9
:100720000F90DF91CF911F910F91FF90EF90DF908D
:10073000CF90BF90AF909F908F907F906F900895D3
:100740000895009789F0FC012381621B67FD09C0B1
:10075000062E000C770B248130E081E062177307CE
:100760000CF080E08170089580E00895CF93DF93CE
:10077000FC01A62F822F309771F16181461758F541
:100780009281291740F59381A91BA7FD24C00A2E49
:10079000000CBB0BC481D0E0AC17BD07E4F40E9491
:1007A0007609480F658170E0CD010E947F090696A9
:1007B000242F269526952695E80FF91FE20FF11DA7
:1007C0009081892F90E0477002C0959587954A9552
:1007D000E2F7817001C080E0DF91CF91089541E0A0
:1007E000611101C040E0692F0C941002692F0C9434
:1007F000260241E0611101C040E0692F0C94100213
:100800004F925F926F927F928F929F92AF92BF9220
:10081000CF92DF92EF92FF920F931F93CF93DF93CC
:100820001F92CDB7DEB7862E942E5C01E62EF72EF2
:10083000262F660F330B281B310987FD3395072FB1
:10084000072E000C110B091B110997FD139537FF9B
:1008500003C077247A9402C07724739417FF03C0EF
:1008600066246A9402C066246394290137FF03C09A
:1008700051944194510817FF03C011950195110936
:1008800040165106A4F06201D594C794F92EA8141D
:1008900021F1692D8A2D9F2D0E94F903C01AD10ADA
:1008A000D7FE03C0C40CD51CF60CA70CF0CF680112
:1008B000D594C794E82EB71681F0692D8E2D9B2D07
:1008C00079830E94F903C418D5087981D7FE03C043
:1008D000C00ED11EE70CB60CEECF692DC7010F90EC
:1008E000DF91CF911F910F91FF90EF90DF90CF900C
:1008F000BF90AF909F908F907F906F905F904F9040
:100900000C94F903FF920F931F93CF93DF93D82F8B
:10091000F92E162FC72F042F792F0E940004402F85
:100920006D2F7C2F8D2F9F2D0E940004402F612F53
:100930007C2F812F9F2D0E940004402F612F7C2F40
:100940008D2F9C2F0E940004DF91CF911F910F915A
:10095000FF9008950E944E02E5E0F1E0118A1486AE
:100960000895DF92EF92FF920F931F93CF93DF933F
:10097000D82E7B01162F0F2D809107019091080131
:10098000C0E00197A1F50F2D0C1BE0910D01F09136
:100990000E018181C817C0F4D0E080910D019091C3
:1009A0000E01FC012281D21768F42D2F4C2F6D2DE2
:1009B0000E94B603682F8D2F8E0D902F0E94F90391
:1009C000DF5FEBCFCF5FDFCFC0E0E0910D01F091B3
:1009D0000E018281C81740F460E08C2F8E0D902F9D
:1009E0000E94F903CF5FF1CF015031C0CF5F1C2FC0
:1009F0001E0DE0910D01F0910E018181C817B0F438
:100A0000D0E080910D0190910E01FC012281D2175E
:100A100068F72D2F4C2F6D2D0E94B603682F812F64
:100A20009D2F9F0D0E94F903DF5FEBCFC0E0E091A7
:100A30000D01F0910E018281C81740F460E0812F12
:100A40009C2F9F0D0E94F903CF5FF1CF1F5F812F75
:100A5000902FDF91CF911F910F91FF90EF90DF903A
:100A600008951F93CF93DF93182FEC018C2F811BD8
:100A70009991992351F0892F0E94B104BC018C2FC8
:100A8000811B653014F477FFF1CFDF91CF911F9177
:100A900008950F931F93CF93DF93EC019B01109266
:100AA0001101409312011092150100910D01109156
:100AB0000E010115110509F449C0F8018181609109
:100AC0000B0170910C0190E00E947F09BC018091A4
:100AD0000F01909110010E949009CB016AE070E033
:100AE0000E947F09909314018093130130930A01AF
:100AF0002093090140E250E0BE0186E191E00E94AE
:100B0000E50980910501909106010197F9F4FE0134
:100B100001900020E9F7CF010197F8019181692F39
:100B200070E06F5F7F4F8C1B0E947609815020918F
:100B30000701309108012130310511F095E001C025
:100B400097E0981718F48EEF80931501DF91CF91FD
:100B50001F910F91089520910701309108012130D4
:100B6000310511F070E001C076E04FEF60E00E94C7
:100B70004905089590E090930C0180930B0108952E
:100B80009093060180930501089590930801809346
:100B90000701089590930E0180930D0108958091AF
:100BA000A5039091A60301969093A6038093A503B5
:100BB00020911301309114018217930708F469C042
:100BC0001092A6031092A503E0911101F0E0EB5FF3
:100BD000FE4F818981110AC080911201823008F490
:100BE00058C081508093120110921101809111011F
:100BF00090E0FC01EB5FFE4F2189222309F449C0FC
:100C000040910501509106012091150141155105B2
:100C100021F04130510599F024C0211122C060918A
:100C2000090170910A018A5E9E4F0E94310590E091
:100C3000019790911101890F8093110112C0609169
:100C4000090170910A01409107015091080141305A
:100C5000510511F4720F01C0621B8A5E9E4F0E9403
:100C60003105809115018F5F80931501082E000CCE
:100C7000990BE0910D01F0910E01218130E02817D0
:100C800039073CF410921501809111018F5F809318
:100C900011010C943A02CF93DF93C5E0D1E09B871A
:100CA0008A870E94560284E190E09F838E83DF91C1
:100CB000CF910C94AA04CF93DF93EC010E942301FF
:100CC0009E0140E050E062E17AE780E090E00E941F
:100CD000A4093093AA032093A903DF91CF9108952B
:100CE0008091A7039091A8030E9432012091A7034D
:100CF0003091A8038091A9039091AA03820F931FBA
:100D00009093A8038093A7030895811105C06623DB
:100D100011F0429A0895429808953A9A429A089595
:100D2000182F092FF62E0E9423010E942D01C12F9A
:100D3000D02F8E819F810E943201E881F9818A81C2
:100D40009B8109958E819F812C813D81280F391FC0
:100D50003F832E830E942D01E12FF02FAFEFBFEFD5
:100D600040E04F1531F326813781BC01621B730BC4
:100D70009B012F3F7FE7370710F4EF01DACF319562
:100D8000219531092A173B0710F4D901EF014F5F74
:100D90003896E7CF0E9413010E94A00384EF91E0F0
:100DA0000E945B060E94C00084EF91E00E944B0607
:100DB0008EE491E00E94CA058AE00E94BA0581E0B3
:100DC00090E00E94C0058CE18093860382E08093CE
:100DD000030183E080930201D0E08091930383308C
:100DE00008F092C00E9470060E9423030E94CF0563
:100DF0000D2F10E0F801EC57FC4F6D2F80810E9401
:100E000063000E947006F801E757FC4F6D2F808148
:100E10000E946300C1E0CD0FD0937E03C53008F07F
:100E2000C0E080E00E94F102882379F08091020105
:100E3000823058F0E0910301F0E0EC57FC4F9081D4
:100E40009695908381508093020182E00E94F10286
:100E5000882379F080910201853058F4E0910301F4
:100E6000F0E0EC57FC4F9081990F90838F5F809357
:100E7000020181E00E94F102882399F0E0910301D0
:100E8000E43078F4AE2FB0E0AC57BC4F8C91809337
:100E900092031C92EF5FE0930301F0E0EC57FC4FEC
:100EA000808383E00E94F102882399F0E09103019E
:100EB000EE2379F0AE2FB0E0AC57BC4F8C9180930D
:100EC00092031C92E150E0930301F0E0EC57FC4FD9
:100ED000808384E00E94F1028823A1F0E091030165
:100EE000F0E0DF01AC57BC4F8C91E757FC4F90818D
:100EF000292F282339F4892B8083809193038F5FD6
:100F000080939303DC2F69CF61E080E00E94850627
:100F1000C0E001E00E9470060E942303D09190037C
:100F20008C2F90E0FC01D11103C0E757FC4F02C0A9
:100F3000E158FC4F6C2F80810E94630011E01C0F70
:100F4000C0937E03153008F010E04F9B03C0D027FC
:100F5000D093900384E00E94F102882349F081E05D
:100F60000E94AE000E94A600823011F481E00EC003
:100F70000E94A400811102C0C12FCCCF0E94A60004
:100F80008130D1F782E00E94AE0082E0809391032D
:100F900080919103813031F442E060E070E086E5B9
:100FA00093E007C0823039F442E060E070E089E508
:100FB00093E00E94490510928F0310928E03809156
:100FC0008E0390918F038C3A9D4038F40E947006F6
:100FD0000E94CF050E945900F2CFC1E0D8E013E093
:100FE00080910101882309F475C180910001882353
:100FF00009F473C180919103813009F0ECC061E084
:1010000080E00E9485061092840310928503D0939D
:101010008603109287031092880382E08093030175
:1010200010930201F12C0E9470060E942303CF2C22
:10103000D12CF601EC57FC4F6F2D80810E9463008C
:101040000E947006F601E158FC4F6F2D80810E94CE
:10105000630001E00F0DF0927E03053008F000E020
:1010600080E00E94F102882379F0809102018823B8
:1010700059F0E0910301F0E0EC57FC4F9081969518
:10108000908381508093020182E00E94F1028823C4
:1010900079F080910201863058F4E0910301F0E08C
:1010A000EC57FC4F9081990F90838F5F80930201E2
:1010B00081E00E94F102882399F0E0910301E4307D
:1010C00078F4AE2FB0E0AC57BC4F8C918093920374
:1010D0001C92EF5FE0930301F0E0EC57FC4F80833C
:1010E00083E00E94F102882399F0E0910301EE234E
:1010F00079F0AE2FB0E0AC57BC4F8C918093920347
:101100001C92E150E0930301F0E0EC57FC4F808328
:1011100084E00E94F102811102C0F02E84CF809100
:10112000030190E0FC01EC57FC4F2081FC01E158E9
:10113000FC4F3081432F422381F7232B208323E070
:10114000880F991F2A95E1F790910201892B0E943F
:10115000AE000E94A600813011F5809100018150FF
:101160008093000141E060E070E08CE593E00E9434
:10117000490510928F0310928E0380918E039091F7
:101180008F03843C994038F40E9470060E94CF057A
:101190000E945900F2CF82E08093910321CF8230E8
:1011A00009F0BBCF41E060E070E081E693E00E948F
:1011B000490510928F0310928E0380918E039091B7
:1011C0008F03843C994038F70E9470060E94CF0537
:1011D0000E945900F2CF823009F002CF60E080E037
:1011E0000E94850600E00E947006E02FF0E0E757BD
:1011F000FC4F602F80810E94630081E0800F00938C
:101200007E03853010F000E001C0082F0E94A4008A
:10121000882349F30E94A600282F287330E093E02A
:10122000359527959A95E1F720930301877091E012
:1012300040E0481719F0990F4F5FFBCFF901E757CE
:10124000FC4F8081892351F181E00E94AE008091A2
:101250000101815080930101E0910301F0E0E75723
:10126000FC4F108241E060E070E08CE593E00E946A
:10127000490510928F0310928E0380918E039091F6
:101280008F03843C994038F40E9470060E94CF0579
:101290000E945900F2CFC0939103A2CE82E00E9437
:1012A000AE0041E060E070E081E693E00E94490515
:1012B00010928F0310928E0380918E0390918F0372
:1012C000843C994040F70E9470060E94CF050E941E
:1012D0005900F2CF82E793E002C087E693E00E94D4
:1012E000AB050E9470060E94CF05FBCF002480FD55
:1012F000060E660F11F08695D1F7802D0895002413
:10130000552704C0080E591F880F991F009729F010
:1013100076956795B8F37105B9F7802D952F0895E7
:10132000AA1BBB1B51E107C0AA1FBB1FA617B7070B
:1013300010F0A61BB70B881F991F5A95A9F7809527
:101340009095BC01CD010895052E97FB1EF40094E5
:101350000E94BB0957FD07D00E94C30907FC03D0B8
:101360004EF40C94BB0950954095309521953F4F14
:101370004F4F5F4F089590958095709561957F4F81
:101380008F4F9F4F0895A1E21A2EAA1BBB1BFD0190
:101390000DC0AA1FBB1FEE1FFF1FA217B307E40754
:1013A000F50720F0A21BB30BE40BF50B661F771FAC
:1013B000881F991F1A9469F760957095809590958C
:1013C0009B01AC01BD01CF010895FB01DC0141503F
:1013D000504048F001900D920020C9F701C01D92C5
:0C13E00041505040E0F70895F894FFCF12
:1013EC0003030302010000000000001400000000D1
:1013FC0000000000000000000000000000000000E1
:10140C0000000000000000000000000000000000D0
:10141C000000000000000340008003100380032044
:10142C00004000200010000800040002000101052B
:10143C0007205F050000000000C6186380014A29E0
:10144C000000004A7DF59502C417471F0163222254
:10145C0032062615519305860800000088082108DD
:10146C00028220848800805457090080904F080025
:10147C00000060880000800F00000000008C01005C
:10148C00222202002EE63AA303C4104288032E4205
:10149C0044C4072E4207A30388A9F411023F840712
:1014AC00A3032E8617A3033F424408012E4617A31D
:1014BC00032E460FA303C018600C00C018608800F0
:1014CC008888200802007CF0010082208888002E89
:1014DC00424400012E425BAB0344C51F63042FC67C
:1014EC0017E3032E8610A2032FC618E3033F8417BD
:1014FC00C2073F841742002E861EA30731C61F6306
:10150C00048E10428803104218A3033195515204E3
:10151C00218410C20771D71A630471D61C63042E80
:10152C00C618A3032FC61742002EC65893052FC604
:10153C001763042E0607A3039F1042080131C61837
:10154C00A30331C618150131C65AAB02312AA26267
:10155C0004312A4208011F2222C207278410C2012B
:10156C0020088220000E21849003444500000000D6
:10157C000000C00782200000000038E8A30721B457
:10158C0019E30300B810A20310DA1CA30700B8F883
:10159C0083034C8A238400C0C7E8A10321B41963D8
:1015AC00040418428803083084920121A4324A02B0
:1015BC00861042880300AC5A630400B4196304001B
:1015CC00B818A30300BCF8420000D8EC210400B406
:1015DC0019420000B8E0E003421C21240300C418A7
:1015EC00B30500C418150100C45AAB02004445549D
:1015FC000400C4E8A103007C44C40788104108021D
:10160C008410420801821044880000888A0000007F
:10161C000306080A034000800310038003200040E7
:10162C0000200010000800040002000103800340A9
:10163C0003200080031050310050320048495421DF
:10164C00004D4953532100594F552057494E2121E4
:0E165C002100594F55204C4F53452E2E2E0085
:00000001FF
