:100000000C943A000C9457000C9457000C94570031
:100010000C9457000C9457000C9457000C94570004
:100020000C9457000C9457000C9457000C945700F4
:100030000C9457000C9457000C9457000C945700E4
:100040000C9457000C9457000C9457000C945700D4
:100050000C9457000C9457000C9457000C945700C4
:100060000C9457000C9457000C9457000C945700B4
:100070000C94570011241FBECFEFD4E0DEBFCDBFDC
:1000800013E0A0E0B1E0E2EFFFE002C005900D92C6
:10009000AA35B107D9F723E0AAE5B3E001C01D9264
:1000A000AF37B207E1F70E9486060C94F7070C946D
:1000B0000000E0915A03F0E0EE0FFF1FED5CFE4FF1
:1000C00020813181F901FF2795A1932B95A3E62F7C
:1000D000F0E0EE0FFF1FED5CFE4F20813181F90152
:1000E000FF2795A1232F2095922395A3EDE3F1E01F
:1000F00020E030E0682F70E0CB01022E02C0959521
:1001000087950A94E2F740815181DA01BB279596E1
:100110009C91959780FF04C0852F8095982301C0FE
:10012000952B95969C932F5F3F4F32962730310544
:1001300019F708950C94D2010C94F3010C94D80192
:100140000C94DE010C94E4010E94E4010E94DE01A3
:100150008823E1F38CE291E00197F1F70E94D2014C
:1001600081110C949C0008950C94FA01CF93DF93B5
:1001700000D01F92CDB7DEB780ED90E09A838983DF
:1001800088E08B83509A589A0E94A5018FE690E0F0
:100190000E943C0181E090E00E94940161E070E0E7
:1001A00081E090E00E9480010E946C01CE010196E6
:1001B0000E94BA010F900F900F90DF91CF91089598
:1001C000CF93DF93DC01562FFB0160E070E0C1E0CC
:1001D000D0E08E2F851B8417B8F49191BE01092EB3
:1001E00002C0660F771F0A94E2F76F5F7F4F769524
:1001F00067956A0F7B1F02C0769567959A95E2F71F
:100200006F3F710509F028F7F9016083DF91CF9105
:100210000895E1E6F0E080E880831082A89584B735
:10022000877F84BFE0E6F0E0808188618083108270
:1002300008951092800084E08093810010928500E0
:100240001092840008958091840090918500089513
:10025000AC0180918400909185009C01241B350B9A
:10026000283E3340B0F708952091840030918500F6
:10027000820F931F0C942801CF93DF931F92CDB769
:10028000DEB79E012F5F3F4F45E06CE273E00E94B6
:10029000E00091E0980F909301019981915097BDF2
:1002A00018BC95B5977039F095B52091010127706C
:1002B000987F922B95BD298130E0E82FF0E0E45D36
:1002C000FC4FC901008002C0880F991F0A94E2F711
:1002D0000F90DF91CF91089585B3897F85BB85B558
:1002E000909101019770887F892B85BD089585B510
:1002F000887F85BD089585B382FB882780F908959E
:10030000009719F0019741F0089584B56295660F42
:10031000660F607C8F7305C084B563706295607FE3
:100320008F7C682B64BD0895009741F0019759F4C4
:1003300084B58E7F84BD84B5826002C084B58C7F15
:1003400084BD81E0089580E0089514BC15BC16BCFE
:1003500018BC84B58E7F84BD84B5826084BD81E085
:1003600008959C01215031093093CD008150809334
:10037000CC000895CF93DF93EC01888199810E948E
:10038000B1018A819BEF980F943008F088E098E1E2
:100390009093C9008550880F8093CA0081E0DF9157
:1003A000CF9108958091C800881F8827881F0895DD
:1003B0008091C80085FB882780F908958091C80046
:1003C00086FB882780F90895CF93C82F0E94D80113
:1003D0008823E1F39091C80090649093C800C09383
:1003E000CE00CF9108958091C80087FFFCCF809107
:1003F000CE000895CF93DF93EC018991882319F003
:100400000E94E401FACFDF91CF910895853098F4EE
:10041000673088F421E030E001C0220F6A95EAF7E6
:10042000E82FF0E0E759FC4F922F909580818923C7
:100430004111822B80830895853080F4673070F4F9
:10044000E82FF0E0E759FC4F81E090E001C0880F11
:100450006A95EAF79081982381E009F480E0089595
:1004600060916803E62FF0E0E759FC4F80810E941D
:100470007E02809168038F5F853018F48093680353
:100480000895109268030895E9E6F3E0108211825E
:1004900012821382148208950E945C020C9444021A
:1004A0009C01FC01FF2784A1832B84A395A1892FA4
:1004B000832B85A381E00895CF93DF93CBE3D3E033
:1004C000899199910E94500283E0C934D807C1F7FD
:1004D00083E090E40E94500280E090E80E94500285
:1004E00083E090E10E94500283E090E80E94500275
:1004F00083E090E2DF91CF910C945002E0916E0383
:10050000F0E0EE0FFF1FEF5CFC4F20813181F9011D
:10051000FF2795A1932B95A3EBE3F3E097E02081D0
:100520003181D901BB2795962C91959780FF03C007
:100530003095232301C0232B95962C9386959150BB
:1005400032969111ECCFE62FF0E0EE0FFF1FEF5C3B
:10055000FC4F80819181FC01FF2785A19095892323
:1005600085A360936E0308956230710511F168F4FC
:100570006130710551F5FC01FF2724A1892F809579
:10058000922F982394A395A112C06330710541F076
:1005900064307105D1F4FC01FF2784A1892B0FC0C1
:1005A000FC01FF2784A1892B84A385A19095892331
:1005B00009C0FC01FF2724A1892F8095822384A3F1
:1005C00085A1892B85A381E0089580E00895E82F17
:1005D000F0E0EE0FFF1FE159FC4F8081882321F0EE
:1005E000918181E0892702C080E090E081700895C8
:1005F000E82FF0E0EE0FFF1FE159FC4F80818111E1
:1006000002C0818102C080E090E081700895E82FEF
:10061000F0E0EE0FFF1FE159FC4F80810895E82FB5
:10062000F0E0EE0FFF1FE159FC4F908181E0892738
:1006300008956F927F928F929F92AF92BF92CF92C6
:10064000DF92EF92FF920F931F93CF93DF9300D02F
:10065000CDB7DEB72FE6622E23E0722E39E4C32E2B
:1006600033E0D32E812C46E0942EF30180818183E8
:10067000F601019111916F015801BB24F50184A18C
:10068000E12EFF2425A130E02E213F2141E0232B44
:1006900009F440E090E08E219F21892B29F041113F
:1006A00008C023E030E00AC0411106C021E030E07C
:1006B00005C024E030E002C022E030E064E070E0F9
:1006C000C80129833A830E94B40262E070E0C80145
:1006D0000E94B402892D8A95F1F7F50183A190E07B
:1006E000E822F92281E029813A81EF2809F080E0AF
:1006F000F3018083B901C8010E94B4028394F2E03F
:100700006F0E711C85E08812B0CF0F900F90DF91B3
:10071000CF911F910F91FF90EF90DF90CF90BF90FE
:10072000AF909F908F907F906F900895089500975D
:1007300089F0FC012381621B67FD09C0062E000CB5
:10074000770B248130E081E0621773070CF080E0C2
:100750008170089580E00895CF93DF93FC01A62F68
:10076000822F309771F16181461758F592812917D0
:1007700040F59381A91BA7FD24C00A2E000CBB0BDA
:10078000C481D0E0AC17BD07E4F40E947907480F9C
:10079000658170E0CD010E9482070696242F269580
:1007A00026952695E80FF91FE20FF11D9081892FFC
:1007B00090E0477002C0959587954A95E2F7817061
:1007C00001C080E0DF91CF91089541E0611101C047
:1007D00040E0692F0C940602692F0C941C0241E042
:1007E000611101C040E0692F0C9406024F925F92A4
:1007F0006F927F928F929F92AF92BF92CF92DF9231
:10080000EF92FF920F931F93CF93DF931F92CDB779
:10081000DEB7862E942E5C01E62EF72E262F660F6D
:10082000330B281B310987FD3395072F072E000C4A
:10083000110B091B110997FD139537FF03C077248E
:100840007A9402C07724739417FF03C066246A94D5
:1008500002C066246394290137FF03C05194419478
:10086000510817FF03C01195019511094016510653
:10087000A4F06201D594C794F92EA81421F1692D32
:100880008A2D9F2D0E94EF03C01AD10AD7FE03C004
:10089000C40CD51CF60CA70CF0CF6801D594C794F6
:1008A000E82EB71681F0692D8E2D9B2D79830E943D
:1008B000EF03C418D5087981D7FE03C0C00ED11E3E
:1008C000E70CB60CEECF692DC7010F90DF91CF91E9
:1008D0001F910F91FF90EF90DF90CF90BF90AF905E
:1008E0009F908F907F906F905F904F900C94EF034C
:1008F000FF920F931F93CF93DF93D82FF92E162FCC
:10090000C72F042F792F0E94F603402F6D2F7C2FC5
:100910008D2F9F2D0E94F603402F612F7C2F812F5A
:100920009F2D0E94F603402F612F7C2F8D2F9C2F2F
:100930000E94F603DF91CF911F910F91FF900895D0
:100940000E944402E2E0F1E0118A14860895DF92E9
:10095000EF92FF920F931F93CF93DF93D82E7B01DB
:10096000162F0F2D8091040190910501C0E0019791
:10097000A1F50F2D0C1BE0910A01F0910B01818173
:10098000C817C0F4D0E080910A0190910B01FC01DE
:100990002281D21768F42D2F4C2F6D2D0E94AC03AD
:1009A000682F8D2F8E0D902F0E94EF03DF5FEBCF0E
:1009B000CF5FDFCFC0E0E0910A01F0910B018281AF
:1009C000C81740F460E08C2F8E0D902F0E94EF032B
:1009D000CF5FF1CF015031C0CF5F1C2F1E0DE091D2
:1009E0000A01F0910B018181C817B0F4D0E0809129
:1009F0000A0190910B01FC012281D21768F72D2F7B
:100A00004C2F6D2D0E94AC03682F812F9D2F9F0DC1
:100A10000E94EF03DF5FEBCFC0E0E0910A01F091AD
:100A20000B018281C81740F460E0812F9C2F9F0D3D
:100A30000E94EF03CF5FF1CF1F5F812F902FDF91D7
:100A4000CF911F910F91FF90EF90DF9008951F932A
:100A5000CF93DF93182FEC018C2F811B9991992351
:100A600051F0892F0E94A704BC018C2F811B653097
:100A700014F477FFF1CFDF91CF911F9108950F9379
:100A80001F93CF93DF93EC019B0110920E014093D3
:100A90000F011092120100910A0110910B01011532
:100AA000110509F449C0F801818160910801709134
:100AB000090190E00E948207BC0180910C01909195
:100AC0000D010E949307CB016AE070E00E9482074B
:100AD0009093110180931001309307012093060138
:100AE00040E250E0BE0183E191E00E94E80780917E
:100AF0000201909103010197F9F4FE010190002099
:100B0000E9F7CF010197F8019181692F70E06F5FDC
:100B10007F4F8C1B0E9479078150209104013091F6
:100B200005012130310511F095E001C097E09817DB
:100B300018F48EEF80931201DF91CF911F910F91E6
:100B4000089520910401309105012130310511F003
:100B500070E001C076E04FEF60E00E943F0508952D
:100B600090E0909309018093080108959093030108
:100B700080930201089590930501809304010895E4
:100B800090930B0180930A010895809179039091CD
:100B90007A03019690937A03809379032091100150
:100BA000309111018217930708F469C010927A03FB
:100BB00010927903E0910E01F0E0EE5FFE4F818923
:100BC00081110AC080910F01823008F458C0815011
:100BD00080930F0110920E0180910E0190E0FC01B4
:100BE000EE5FFE4F2189222309F449C040910201A2
:100BF00050910301209112014115510521F041301E
:100C0000510599F024C0211122C060910601709114
:100C100007018D5E9E4F0E94270590E001979091FD
:100C20000E01890F80930E0112C060910601709130
:100C3000070140910401509105014130510511F423
:100C4000720F01C0621B8D5E9E4F0E94270580912E
:100C500012018F5F80931201082E000C990BE09116
:100C60000A01F0910B01218130E0281739073CF48B
:100C70001092120180910E018F5F80930E010C94EF
:100C80003002CF93DF93C2E0D1E09B878A870E9436
:100C90004C0284E190E09F838E83DF91CF910C948E
:100CA000A004CF93DF93EC010E9419019E0140E064
:100CB00050E062E17AE780E090E00E94A70730937D
:100CC0007E0320937D03DF91CF91089580917B0374
:100CD00090917C030E94280120917B0330917C033A
:100CE00080917D0390917E03820F931F90937C03EC
:100CF00080937B030895811105C0662311F0429A09
:100D00000895429808953A9A429A08950E940901D6
:100D10000E94960384EF91E00E9451060E94B60063
:100D200084EF91E00E9441068BE491E00E94C005AF
:100D30008AE00E94B00581E090E00E94B6058CE157
:100D400080935D03D0E080916703833008F084C016
:100D50000E9466060E9419030E94C5050D2F10E02F
:100D6000F801E55AFC4F6D2F80810E9459000E94C6
:100D70006606F801E05AFC4F6D2F80810E945900F1
:100D8000C1E0CD0FD0935A03C53008F0C0E080E039
:100D90000E94E702882341F0E0910001F0E0E55A6B
:100DA000FC4F80818695808382E00E94E702882341
:100DB00041F0E0910001F0E0E55AFC4F8081880F9E
:100DC000808381E00E94E702882399F0E09100018E
:100DD000E43078F4AE2FB0E0A55ABC4F8C918093EC
:100DE00066031C92EF5FE0930001F0E0E55AFC4FD0
:100DF000808383E00E94E702882399F0E09100015C
:100E0000EE2379F0AE2FB0E0A55ABC4F8C918093C1
:100E100066031C92E150E0930001F0E0E55AFC4FBC
:100E2000808384E00E94E7028823A1F0E091000122
:100E3000F0E0DF01A55ABC4F8C91E05AFC4F908145
:100E4000292F282339F4892B8083809167038F5FB2
:100E500080936703DC2F77CF61E080E00E947B0600
:100E6000C0E00E9466060E9419030E94C505EC2F8F
:100E7000F0E0E05AFC4F6C2F80810E945900D1E0D5
:100E8000DC0FC0935A03D53008F0D0E084E00E9414
:100E9000E702882339F081E00E94A4000E949C00B0
:100EA000813069F00E949A00811102C0CD2FD9CF04
:100EB0000E949C008130D1F70E94A40082E08093C0
:100EC000650380916503813031F442E060E070E0B9
:100ED00083E593E007C0823039F442E060E070E0DF
:100EE00086E593E00E943F050E9466060E94C505C4
:100EF000FBCF002480FD060E660F11F08695D1F71A
:100F0000802D08950024552704C0080E591F880F0E
:100F1000991F009729F076956795B8F37105B9F791
:100F2000802D952F0895AA1BBB1B51E107C0AA1F56
:100F3000BB1FA617B70710F0A61BB70B881F991F7A
:100F40005A95A9F780959095BC01CD010895052E7D
:100F500097FB1EF400940E94BE0757FD07D00E9425
:100F6000C60707FC03D04EF40C94BE07509540957D
:100F7000309521953F4F4F4F5F4F08959095809545
:100F8000709561957F4F8F4F9F4F0895A1E21A2E64
:100F9000AA1BBB1BFD010DC0AA1FBB1FEE1FFF1F1D
:100FA000A217B307E407F50720F0A21BB30BE40B6D
:100FB000F50B661F771F881F991F1A9469F76095B4
:100FC0007095809590959B01AC01BD01CF0108956E
:100FD000FB01DC014150504048F001900D9200208F
:100FE000C9F701C01D9241505040E0F70895F894B0
:020FF000FFCF31
:100FF20002010000000000001400000000000000D8
:1010020000000000000000000000000000000000DE
:1010120000000000000000000000000000000000CE
:101022000000000340008003100380032000400002
:101032002000100008000400020001010507205FE3
:10104200050000000000C6186380014A2900000064
:101052004A7DF59502C417471F01632222320626F4
:101062001551930586080000008808210802822095
:10107200848800805457090080904F080000006067
:10108200880000800F00000000008C010022220274
:10109200002EE63AA303C4104288032E4244C4073A
:1010A2002E4207A30388A9F411023F8407A3032E4B
:1010B2008617A3033F424408012E4617A3032E4678
:1010C2000FA303C018600C00C01860880088882035
:1010D2000802007CF0010082208888002E42440031
:1010E200012E425BAB0344C51F63042FC617E30303
:1010F2002E8610A2032FC618E3033F8417C2073FB0
:10110200841742002E861EA30731C61F63048E1069
:10111200428803104218A3033195515204218410CE
:10112200C20771D71A630471D61C63042EC618A3B2
:10113200032FC61742002EC65893052FC617630405
:101142002E0607A3039F1042080131C618A30331DC
:10115200C618150131C65AAB02312AA26204312ADD
:101162004208011F2222C207278410C201200882DE
:1011720020000E218490034445000000000000C0BE
:101182000782200000000038E8A30721B419E30316
:1011920000B810A20310DA1CA30700B8F883034CAE
:1011A2008A238400C0C7E8A10321B4196304041888
:1011B200428803083084920121A4324A02861042F6
:1011C200880300AC5A630400B419630400B818A37E
:1011D2000300BCF8420000D8EC210400B41942001C
:1011E20000B8E0E003421C21240300C418B3050048
:1011F200C418150100C45AAB02004445540400C48B
:10120200E8A103007C44C40788104108028410420C
:101212000801821044880000888A00000003060842
:101222000A034000800310038003200040002000D6
:1012320010000800040002000103800340032000A4
:0A124200800310503100503200000C
:00000001FF
