:100000000C943A000C9457000C9457000C94570031
:100010000C9457000C9457000C9457000C94570004
:100020000C9457000C9457000C9457000C945700F4
:100030000C9457000C9457000C9457000C945700E4
:100040000C9457000C9457000C9457000C945700D4
:100050000C9457000C9457000C9457000C945700C4
:100060000C9457000C9457000C9457000C945700B4
:100070000C94570011241FBECFEFD4E0DEBFCDBFDC
:1000800013E0A0E0B1E0EAE0F4E102C005900D92D7
:10009000A836B107D9F713E0A8E6B3E001C01D9276
:1000A000A539B107E1F70E94DF060C94030A0C940E
:1000B00000008091780390917903019690937903E1
:1000C000809378030895A0916803B0E0AA0FBB1F46
:1000D000AA5CBE4F2D913C91D901BB2795969C916E
:1000E0009597932B95969C93E62FF0E0EE0FFF1FCC
:1000F000EA5CFE4F20813181F901FF2725A1932F72
:100100009095922395A3E0E4F1E020E030E090E0C8
:10011000AC01022E02C0559547950A94E2F740FFC4
:100120000BC040815181DA01BB2795966C91959760
:10013000452F4095462308C040815181DA01BB27F5
:1001400095964C919597452B95964C932F5F3F4FE5
:10015000329627303105E1F608950C94E3010C94B2
:1001600004020C94E9010C94EF010C94F5010E9437
:10017000F5010E94EF018823E1F38CE291E0019701
:10018000F1F70E94E30181110C94AF0008950C94E3
:100190000B02CF93DF9300D01F92CDB7DEB780ED77
:1001A00090E09A83898388E08B83509A589A0E94C2
:1001B000B8018FE690E00E944F0181E090E00E943C
:1001C000A70161E070E081E090E00E9493010E944D
:1001D0007F01CE0101960E94CB010F900F900F90EE
:1001E000DF91CF910895CF93DF93D62FFB0160E08D
:1001F00070E0A1E0B0E05E2F5D1B5417B8F4C19130
:10020000BD010C2E02C0660F771F0A94E2F76F5FE4
:100210007F4F76956795680F791F02C07695679531
:10022000CA95E2F76F3F710509F028F7F90160837D
:10023000852FDF91CF910895E1E6F0E080E880839B
:100240001082A89584B7877F84BFE0E6F0E08081C4
:1002500088618083108208951092800084E08093EA
:10026000810010928500109284000895809184008E
:10027000909185000895AC01809184009091850053
:100280009C01241B350B283E3340B0F70895209184
:10029000840030918500820F931F0C943B01CF9313
:1002A000DF931F92CDB7DEB79E012F5F3F4F45E032
:1002B0006FE273E00E94F30091E0980F90930401C5
:1002C0009981915097BD18BC95B5977039F025B5B7
:1002D000909104019770287F922B95BD298130E081
:1002E000E82FF0E0E15DFC4FC901008002C0880FFB
:1002F000991F0A94E2F70F90DF91CF91089585B38B
:10030000897F85BB95B5809104018770987F892B83
:1003100085BD089585B5887F85BD089585B382FB29
:10032000882780F90895009719F0019741F0089502
:1003300084B56295660F660F607C8F7305C084B5C7
:1003400063706295607F8F7C682B64BD0895009711
:1003500041F0019759F484B58E7F84BD84B58260E5
:1003600002C084B58C7F84BD81E0089580E008954B
:1003700014BC15BC16BC18BC81E090E00E94A7011B
:1003800081E008959C01215031093093CD008150C6
:100390008093CC000895CF93DF93EC0188819981FD
:1003A0000E94C2018A819BEF980F943008F088E088
:1003B00098E19093C9008550880F8093CA0081E02E
:1003C000DF91CF9108958091C800881F8827881FEA
:1003D00008958091C80085FB882780F90895809151
:1003E000C80086FB882780F90895CF93C82F0E9404
:1003F000E9018823E1F39091C80090649093C800CC
:10040000C093CE00CF9108958091C80087FFFCCFA4
:100410008091CE000895CF93DF93EC0189918823DA
:1004200019F00E94F501FACFDF91CF910895853040
:10043000A0F4673090F421E030E0062E01C0220FD6
:100440000A94EAF7E82FF0E0E158FC4F822F8095FC
:10045000908189234111822B80830895853088F40F
:10046000673078F4E82FF0E0E158FC4F21E030E00D
:10047000062E01C0220F0A94EAF79081922381E0B0
:1004800009F480E0089560917E03E62FF0E0E158E2
:10049000FC4F80810E94920280917E038F5F8530A5
:1004A00018F480937E03089510927E0308951092AD
:1004B0007F031092800310928103109282031092A6
:1004C000830308950E9470020C945702FC01FF27D9
:1004D00084A1892B84A385A1892B85A381E008951C
:1004E000CF93DF93CEE3D3E0899199910E94660286
:1004F00083E0CC34D807C1F783E090E40E94660221
:1005000080E090E80E94660283E090E10E9466022B
:1005100083E090E80E94660283E090E2DF91CF9151
:100520000C946602E0918403F0E0EE0FFF1FEC5C98
:10053000FC4F20813181F901FF2795A1932B95A3D1
:10054000EEE3F3E020813181D901BB2780FF07C0B2
:1005500095962C919597932F9095922304C09596FC
:100560009C919597932B95969C938695329693E0C4
:10057000EC34F90739F7E62FF0E0EE0FFF1FEC5CE3
:10058000FC4F80819181FC01FF2725A1892F809557
:10059000822385A36093840308956230710511F16D
:1005A00060F46130710551F5FC01FF2784A190953D
:1005B000892384A385A189231EC06330710541F07E
:1005C00064307105D9F4FC01FF2784A1892B10C088
:1005D000FC01FF2784A1892B84A325A1892F809565
:1005E000822309C0FC01FF2784A1292F20958223A3
:1005F00084A385A1892B85A381E0089580E00895D7
:10060000E82FF0E0EE0FFF1FEB57FC4F80818823AF
:1006100021F0818191E0892701C080E081700895F7
:10062000E82FF0E0EE0FFF1FEB57FC4F80818111A8
:1006300002C0818101C080E081700895E82FF0E060
:10064000EE0FFF1FEB57FC4F80810895E82FF0E07D
:10065000EE0FFF1FEB57FC4F908181E08927089533
:100660004F925F927F928F929F92AF92BF92CF9262
:10067000DF92EF92FF920F931F93CF93DF9300D0FF
:10068000CDB7DEB755E8452E53E0552E66E8E62E89
:1006900063E0F62E7CE4A72E73E0B72EE6E07E2E14
:1006A000F2018081F7018083F501019111915F01D1
:1006B0006801DD24F60184A1812E992425A130E072
:1006C0002821392141E0232B09F440E090E08821E2
:1006D0009921892B29F0442341F024E030E00AC01D
:1006E000442331F022E030E005C023E030E002C0D6
:1006F00021E030E064E070E0C80129833A830E9481
:10070000CD0262E070E0C8010E94CD02872D8A957B
:10071000F1F7F60183A190E08821992141E0298138
:100720003A81892B09F040E0F2014083B901C80108
:100730000E94CD02F2E04F0E511C82E0E80EF11C47
:10074000EFE84E16E3E05E0609F0AACF0F900F9097
:10075000DF91CF911F910F91FF90EF90DF90CF909D
:10076000BF90AF909F908F907F905F904F90089533
:100770000895009789F0FC012381621B67FD09C081
:10078000772767FD7095248130E081E06217730759
:100790000CF080E08170089580E00895CF93DF939E
:1007A000FC01822F309789F19181491770F52281E0
:1007B000821758F52381621B67FD27C0A62FBB2730
:1007C000A7FDB095C481D0E0AC17BD07F4F4692F44
:1007D0000E948509480F658170E0CD010E948E0955
:1007E000DC011696842F869586958695AE0FBF1FE1
:1007F000A80FB11D2C9130E0477002C035952795A8
:100800004A95E2F7822F817001C080E0DF91CF919D
:10081000089541E0611101C040E0692F0C94170276
:10082000692F0C942E0241E0611101C040E0692F54
:100830000C9417026F927F928F929F92AF92BF9209
:10084000CF92DF92EF92FF920F931F93CF93DF939C
:100850001F92CDB7DEB7862EB42E6C01862F992756
:1008600087FD90958C199109C7FC9395072F112747
:1008700007FD10950D191109D7FC139597FD03C0BD
:10088000AA24A39402C0AA24AA9417FD03C0992401
:10089000939402C099249A943C0197FF03C07194E9
:1008A0006194710817FF03C0119501951109601635
:1008B000710694F07301F594E794C81409F16B2D57
:1008C000C6010E941304E01AF10AF7FE03C0E60C09
:1008D000F71CD90CCA0CF1CF7801F594E794D71620
:1008E00079F06B2DC60179830E941304E618F7088E
:1008F0007981F7FE03C0E00EF11ECA0CD90CEFCFD0
:100900006B2DC6010F90DF91CF911F910F91FF903A
:10091000EF90DF90CF90BF90AF909F908F907F909F
:100920006F900C941304FF920F931F93CF93DF9358
:10093000182FF92E062FC72FD42F792F0E941A04B3
:100940004D2F612F7C2F812F9F2D0E941A044D2F38
:10095000602F7C2F802F9F2D0E941A044D2F602F17
:100960007C2F812F9C2F0E941A04DF91CF911F9121
:100970000F91FF9008950E94570210921601109255
:1009800011010895DF92EF92FF920F931F93CF937F
:10099000DF93E82E8B01F62ED12E209107013091A6
:1009A0000801D0E02130310599F5D12EDD1AE09112
:1009B0000D01F0910E018181C0E0D817B8F4E091EB
:1009C0000D01F0910E018281C81770F42C2F4D2F6C
:1009D0006E2DCF010E94CE03682F8C2F800F9D2D8E
:1009E0000E941304CF5FEBCFDF5FDFCFE0910D01FB
:1009F000F0910E018281C81740F460E08C2F800FC7
:100A00009D2D0E941304CF5FF1CFDA9430C0DF5FD9
:100A1000FD2EF00EE0910D01F0910E018181C0E0FC
:100A2000D817A8F4E0910D01F0910E018281C8174A
:100A300070F72C2F4D2F6E2DCF010E94CE03682F03
:100A40008F2D9C2F910F0E941304CF5FEBCFE0916D
:100A50000D01F0910E018281C81740F460E08F2DE6
:100A60009C2F910F0E941304CF5FF1CFF3948F2D31
:100A70009D2DDF91CF911F910F91FF90EF90DF900F
:100A800008951F93CF93DF93182FEC019C2F911B98
:100A90008991882349F00E94C204BC019C2F911BBC
:100AA000653014F477FFF2CF892FDF91CF911F913A
:100AB00008950F931F93CF93DF93EC019B01109246
:100AC0001101409312011092150100910D01109136
:100AD0000E010115110509F448C0F80181816091EA
:100AE0000B0170910C0190E00E948E09BC01809175
:100AF0000F01909110010E949F09CB016AE070E004
:100B00000E948E09909314018093130130930A017F
:100B10002093090140E250E0BE0186E191E00E948D
:100B2000F40980910501909106010197F1F4FE010D
:100B300001900020E9F7CF010197F801618170E091
:100B40006F5F7F4F8C1B0E948509815020910701A8
:100B5000309108012130310511F497E001C095E092
:100B6000981718F48EEF80931501DF91CF911F91A4
:100B70000F9108952091070130910801213031052E
:100B800011F476E001C070E04FEF60E00E9459057B
:100B9000089590E090930C0180930B010895909339
:100BA0000601809305010895909308018093070141
:100BB000089590930E0180930D010895CF93809135
:100BC0008F039091900301969093900380938F03ED
:100BD00020911301309114018217930708F468C023
:100BE0001092900310928F03E0911101F0E0EB5FFF
:100BF000FE4F818981110AC080911201823008F470
:100C000057C081508093120110921101C0911101BF
:100C10008C2F90E0FC01EB5FFE4F2189222309F429
:100C200047C0209105013091060140911501211521
:100C3000310521F02130310589F022C0411120C059
:100C40006091090170910A018A5E9E4F0E944105E0
:100C50009FEF9C0F980F9093110112C060910901B2
:100C600070910A012091070130910801213031056E
:100C700011F4740F01C0641B8A5E9E4F0E944105EF
:100C8000209115012F5F20931501332727FD309503
:100C9000E0910D01F0910E01818190E082179307A0
:100CA0003CF410921501809111018F5F8093110126
:100CB000CF910C9443029093100180930F010E94F6
:100CC000620284E190E090930C0180930B010C94FC
:100CD000BB04CF93DF93EC010E942C019E0140E006
:100CE00050E062E17AE780E090E00E94B30930933F
:100CF000940320939303DF91CF9108958091910302
:100D0000909192030E943B018091910390919203F4
:100D10002091930330919403820F931F9093920339
:100D2000809391030895811105C0662311F0429AC2
:100D30000895429808953A9A429A0895182F092FD3
:100D4000F62E0E942C010E943601C12FD02F8E81D9
:100D50009F810E943B01E881F9818A819B810995ED
:100D60002E813F818C819D81280F391F3F832E83E7
:100D70000E943601E12FF02F2FEF3FEF60E06F155B
:100D800031F3AE2F7F2F468157816C01C41AD50AEB
:100D9000A601BFEFCB16BFE7DB0610F4EF01D7CFFC
:100DA0005195419551094217530718F0A901AC2FED
:100DB0007D2F6F5F38969A01CA2FD72FE0CFDF9231
:100DC000EF92FF920F931F93CF93DF930E941C012A
:100DD0000E94B80384EF91E00E9469060E94C90056
:100DE00084EF91E00E945B068EE491E00E94D905B9
:100DF0008AE00E94C90581E090E00E94CF058CE165
:100E00008093700310E080917D03833008F08DC0E3
:100E10000E947E060E9430030E94DE05C12FD0E0B2
:100E2000FE01E259FC4F612F80810E9463000E9405
:100E30007E06CD58DC4F612F88810E946300C1E09F
:100E4000C10F10936803C53008F0C0E080E00E9435
:100E50000003882361F080910201823040F0E0912C
:100E60000301F0E0E259FC4F80818695808382E0A7
:100E70000E940003882361F080910201853040F4D4
:100E8000E0910301F0E0E259FC4F8081880F8083FC
:100E900081E00E9400038823A1F080910301843047
:100EA00080F4E82FF0E0E259FC4F908190937C03AE
:100EB00010828F5F80930301E82FF0E0E259FC4F2E
:100EC000908383E00E9400038823A1F080910301B6
:100ED000882381F0E82FF0E0E259FC4F9081909355
:100EE0007C031082815080930301E82FF0E0E259E7
:100EF000FC4F908384E00E9400038823A1F0E091DE
:100F00000301F0E0DF01A259BC4F8C91ED58FC4F7A
:100F10009081292F282339F4892B808380917D03A8
:100F20008F5F80937D031C2F6ECF61E080E00E9475
:100F30009306C0E001E00E947E060E9430031091FB
:100F40007A038C2F90E0FC01111103C0ED58FC4F87
:100F500002C0E759FC4F6C2F80810E946300D1E0F2
:100F6000DC0FC0936803D53008F0D0E04F9B03C07E
:100F7000102710937A0384E00E940003882349F02D
:100F800081E00E94B7000E94AF00823011F481E03E
:100F90000EC00E94AD00811102C0CD2FCCCF0E94A7
:100FA000AF008130D1F782E00E94B70082E08093E9
:100FB0007B0380917B03813031F442E060E070E09C
:100FC00086E593E007C0823039F442E060E070E0EB
:100FD00089E593E00E9459051092790310927803F5
:100FE00080917803909179038C3A9D4038F40E9467
:100FF0007E060E94DE050E945900F2CFC1E0D8E0D3
:1010000013E080910101882309F475C180910001EA
:10101000882309F470C180917B03813009F0F0C00E
:1010200061E080E00E94930610926E0310926F03BD
:10103000D0937003109271031092720382E0809338
:10104000030110930201D12C0E947E060E943003FE
:10105000ED2CF12CF701E259FC4F6D2D80810E949F
:1010600063000E947E06F701E759FC4F6D2D8081D9
:101070000E94630001E00D0DD0926803053008F076
:1010800000E080E00E940003882379F09091020143
:10109000992359F0E0910301F0E0E259FC4F80817F
:1010A0008695808391509093020182E00E94000314
:1010B000882379F090910201963058F4E091030171
:1010C000F0E0E259FC4F8081880F80839F5F90930E
:1010D000020181E00E9400038823A1F080910301B6
:1010E000843080F4E82FF0E0E259FC4F9081909337
:1010F0007C0310828F5F80930301E82FF0E0E259B8
:10110000FC4F908383E00E9400038823A1F080912C
:101110000301882381F0E82FF0E0E259FC4F908131
:1011200090937C031082815080930301E82FF0E0BC
:10113000E259FC4F908384E00E940003811102C0B9
:10114000D02E82CF8091030190E0FC01E259FC4F48
:101150002081FC01E759FC4F3081432F422381F766
:10116000232B208353E0880F991F5A95E1F7909124
:101170000201892B0E94B7000E94AF008130F1F478
:101180008091000181508093000141E060E070E0B7
:101190008CE593E00E945905109279031092780330
:1011A0008091780390917903843C994028F50E94BE
:1011B0007E060E94DE050E945900F2CF0E94AF0019
:1011C000823009F0BDCF41E060E070E081E693E05D
:1011D0000E94590510927903109278038091780348
:1011E00090917903843C994038F40E947E060E94D5
:1011F000DE050E945900F2CF82E080937B0301CF8D
:10120000823009F0FECE60E080E00E94930600E0AC
:101210000E947E06E02FF0E0ED58FC4F602F8081A9
:101220000E946300FF24F394F00E0093680384E0AF
:101230008F1508F4F12C0E94AD00811102C00F2D12
:10124000E7CF0E94AF00282F287330E043E03595A8
:1012500027954A95E1F720930301877091E040E0DC
:10126000481719F0990F4F5FFBCFF901ED58FC4F6C
:101270008081892309F181E00E94B70080910101FA
:1012800081508093010141E060E070E08CE593E0E3
:101290000E94590510927903109278038091780387
:1012A00090917903843C994018F50E947E060E9433
:1012B000DE050E945900F2CF82E00E94B70041E0B3
:1012C00060E070E081E693E00E9459051092790396
:1012D000109278038091780390917903843C99402F
:1012E00038F40E947E060E94DE050E945900F2CF6B
:1012F000C0937B0386CE80E090E0DF91CF911F9179
:101300000F91FF90EF90DF900895002480FD060E6E
:10131000660F11F08695D1F7802D0895002455278A
:1013200004C0080E591F880F991F009729F0769561
:101330006795B8F37105B9F7802D952F0895AA1B0D
:10134000BB1B51E107C0AA1FBB1FA617B70710F0B0
:10135000A61BB70B881F991F5A95A9F780959095E2
:10136000BC01CD010895052E97FB1EF400940E9448
:10137000CA0957FD07D00E94D20907FC03D04EF4DA
:101380000C94CA0950954095309521953F4F4F4F89
:101390005F4F089590958095709561957F4F8F4F21
:1013A0009F4F0895A1E21A2EAA1BBB1BFD010DC081
:1013B000AA1FBB1FEE1FFF1FA217B307E407F50705
:1013C00020F0A21BB30BE40BF50B661F771F881FE1
:1013D000991F1A9469F760957095809590959B0177
:1013E000AC01BD01CF010895FB01DC01415050402B
:1013F00048F001900D920020C9F701C01D924150A4
:0A1400005040E0F70895F894FFCF84
:10140A0003030302010000000000001400000000B2
:10141A0000000000000000000000000000000000C2
:10142A0000000000000000000000000000000000B2
:10143A000000000000000340008003100380032026
:10144A00004000200010000800040002000101050D
:10145A0007205F050000000000C6186380014A29C2
:10146A000000004A7DF59502C417471F0163222236
:10147A0032062615519305860800000088082108BF
:10148A00028220848800805457090080904F080007
:10149A00000060880000800F00000000008C01003E
:1014AA00222202002EE63AA303C4104288032E42E7
:1014BA0044C4072E4207A30388A9F411023F8407F4
:1014CA00A3032E8617A3033F424408012E4617A3FF
:1014DA00032E460FA303C018600C00C018608800D2
:1014EA008888200802007CF0010082208888002E6B
:1014FA00424400012E425BAB0344C51F63042FC65E
:10150A0017E3032E8610A2032FC618E3033F84179E
:10151A00C2073F841742002E861EA30731C61F63E7
:10152A00048E10428803104218A3033195515204C5
:10153A00218410C20771D71A630471D61C63042E62
:10154A00C618A3032FC61742002EC65893052FC6E6
:10155A001763042E0607A3039F1042080131C61819
:10156A00A30331C618150131C65AAB02312AA26249
:10157A0004312A4208011F2222C207278410C2010D
:10158A0020088220000E21849003444500000000B8
:10159A000000C00782200000000038E8A30721B439
:1015AA0019E30300B810A20310DA1CA30700B8F865
:1015BA0083034C8A238400C0C7E8A10321B41963BA
:1015CA00040418428803083084920121A4324A0292
:1015DA00861042880300AC5A630400B419630400FD
:1015EA00B818A30300BCF8420000D8EC210400B4E8
:1015FA0019420000B8E0E003421C21240300C41889
:10160A00B30500C418150100C45AAB02004445547E
:10161A000400C4E8A103007C44C4078810410802FE
:10162A008410420801821044880000888A00000061
:10163A000306080A034000800310038003200040C9
:10164A00002000100008000400020001038003408B
:10165A0003200080031050310050320048495421C1
:08166A00004D4953532100001B
:00000001FF
